{
  "_format": "hh-sol-artifact-1",
  "contractName": "ProofOfGive",
  "sourceName": "contracts/ProofOfGive.sol",
  "abi": [
    {
      "inputs": [
        {
          "internalType": "address",
          "name": "_hackathonIdAddress",
          "type": "address"
        }
      ],
      "stateMutability": "nonpayable",
      "type": "constructor"
    },
    {
      "inputs": [],
      "name": "HandleContainsInvalidCharacters",
      "type": "error"
    },
    {
      "inputs": [],
      "name": "HandleFirstCharInvalid",
      "type": "error"
    },
    {
      "inputs": [],
      "name": "HandleLengthInvalid",
      "type": "error"
    },
    {
      "anonymous": false,
      "inputs": [
        {
          "indexed": true,
          "internalType": "address",
          "name": "owner",
          "type": "address"
        },
        {
          "indexed": true,
          "internalType": "address",
          "name": "approved",
          "type": "address"
        },
        {
          "indexed": true,
          "internalType": "uint256",
          "name": "tokenId",
          "type": "uint256"
        }
      ],
      "name": "Approval",
      "type": "event"
    },
    {
      "anonymous": false,
      "inputs": [
        {
          "indexed": true,
          "internalType": "address",
          "name": "owner",
          "type": "address"
        },
        {
          "indexed": true,
          "internalType": "address",
          "name": "operator",
          "type": "address"
        },
        {
          "indexed": false,
          "internalType": "bool",
          "name": "approved",
          "type": "bool"
        }
      ],
      "name": "ApprovalForAll",
      "type": "event"
    },
    {
      "anonymous": false,
      "inputs": [
        {
          "indexed": true,
          "internalType": "address",
          "name": "previousOwner",
          "type": "address"
        },
        {
          "indexed": true,
          "internalType": "address",
          "name": "newOwner",
          "type": "address"
        }
      ],
      "name": "OwnershipTransferred",
      "type": "event"
    },
    {
      "anonymous": false,
      "inputs": [
        {
          "indexed": true,
          "internalType": "address",
          "name": "from",
          "type": "address"
        },
        {
          "indexed": true,
          "internalType": "address",
          "name": "to",
          "type": "address"
        },
        {
          "indexed": true,
          "internalType": "uint256",
          "name": "tokenId",
          "type": "uint256"
        }
      ],
      "name": "Transfer",
      "type": "event"
    },
    {
      "anonymous": false,
      "inputs": [
        {
          "indexed": true,
          "internalType": "uint256",
          "name": "donationId",
          "type": "uint256"
        },
        {
          "indexed": true,
          "internalType": "address",
          "name": "userAddress",
          "type": "address"
        },
        {
          "indexed": true,
          "internalType": "uint256",
          "name": "hackathonId",
          "type": "uint256"
        },
        {
          "indexed": false,
          "internalType": "uint256",
          "name": "eventId",
          "type": "uint256"
        },
        {
          "indexed": false,
          "internalType": "uint256",
          "name": "charityId",
          "type": "uint256"
        },
        {
          "indexed": false,
          "internalType": "string",
          "name": "handle",
          "type": "string"
        },
        {
          "indexed": false,
          "internalType": "string",
          "name": "dataUri",
          "type": "string"
        }
      ],
      "name": "pogMinted",
      "type": "event"
    },
    {
      "inputs": [
        {
          "internalType": "address",
          "name": "to",
          "type": "address"
        },
        {
          "internalType": "uint256",
          "name": "tokenId",
          "type": "uint256"
        }
      ],
      "name": "approve",
      "outputs": [],
      "stateMutability": "nonpayable",
      "type": "function"
    },
    {
      "inputs": [
        {
          "internalType": "address",
          "name": "owner",
          "type": "address"
        }
      ],
      "name": "balanceOf",
      "outputs": [
        {
          "internalType": "uint256",
          "name": "",
          "type": "uint256"
        }
      ],
      "stateMutability": "view",
      "type": "function"
    },
    {
      "inputs": [
        {
          "internalType": "uint256",
          "name": "",
          "type": "uint256"
        }
      ],
      "name": "donations",
      "outputs": [
        {
          "internalType": "uint256",
          "name": "donationId",
          "type": "uint256"
        },
        {
          "internalType": "string",
          "name": "handle",
          "type": "string"
        },
        {
          "internalType": "uint256",
          "name": "hackathonId",
          "type": "uint256"
        },
        {
          "internalType": "uint256",
          "name": "eventId",
          "type": "uint256"
        },
        {
          "internalType": "uint256",
          "name": "charityId",
          "type": "uint256"
        },
        {
          "internalType": "string",
          "name": "dataUri",
          "type": "string"
        }
      ],
      "stateMutability": "view",
      "type": "function"
    },
    {
      "inputs": [
        {
          "internalType": "uint256",
          "name": "tokenId",
          "type": "uint256"
        }
      ],
      "name": "getApproved",
      "outputs": [
        {
          "internalType": "address",
          "name": "",
          "type": "address"
        }
      ],
      "stateMutability": "view",
      "type": "function"
    },
    {
      "inputs": [],
      "name": "hackathonID",
      "outputs": [
        {
          "internalType": "contract IHackathonID",
          "name": "",
          "type": "address"
        }
      ],
      "stateMutability": "view",
      "type": "function"
    },
    {
      "inputs": [
        {
          "internalType": "address",
          "name": "",
          "type": "address"
        }
      ],
      "name": "ids",
      "outputs": [
        {
          "internalType": "uint256",
          "name": "",
          "type": "uint256"
        }
      ],
      "stateMutability": "view",
      "type": "function"
    },
    {
      "inputs": [
        {
          "internalType": "address",
          "name": "owner",
          "type": "address"
        },
        {
          "internalType": "address",
          "name": "operator",
          "type": "address"
        }
      ],
      "name": "isApprovedForAll",
      "outputs": [
        {
          "internalType": "bool",
          "name": "",
          "type": "bool"
        }
      ],
      "stateMutability": "view",
      "type": "function"
    },
    {
      "inputs": [
        {
          "internalType": "address",
          "name": "_userAddress",
          "type": "address"
        },
        {
          "internalType": "uint256",
          "name": "_hackathonId",
          "type": "uint256"
        },
        {
          "internalType": "uint256",
          "name": "_eventId",
          "type": "uint256"
        },
        {
          "internalType": "uint256",
          "name": "_charityId",
          "type": "uint256"
        },
        {
          "internalType": "string",
          "name": "_handle",
          "type": "string"
        },
        {
          "internalType": "string",
          "name": "_dataUri",
          "type": "string"
        }
      ],
      "name": "mintPoG",
      "outputs": [
        {
          "internalType": "uint256",
          "name": "",
          "type": "uint256"
        }
      ],
      "stateMutability": "payable",
      "type": "function"
    },
    {
      "inputs": [],
      "name": "name",
      "outputs": [
        {
          "internalType": "string",
          "name": "",
          "type": "string"
        }
      ],
      "stateMutability": "view",
      "type": "function"
    },
    {
      "inputs": [
        {
          "internalType": "address",
          "name": "_user",
          "type": "address"
        }
      ],
      "name": "numberMinted",
      "outputs": [
        {
          "internalType": "uint256",
          "name": "",
          "type": "uint256"
        }
      ],
      "stateMutability": "view",
      "type": "function"
    },
    {
      "inputs": [],
      "name": "owner",
      "outputs": [
        {
          "internalType": "address",
          "name": "",
          "type": "address"
        }
      ],
      "stateMutability": "view",
      "type": "function"
    },
    {
      "inputs": [
        {
          "internalType": "uint256",
          "name": "tokenId",
          "type": "uint256"
        }
      ],
      "name": "ownerOf",
      "outputs": [
        {
          "internalType": "address",
          "name": "",
          "type": "address"
        }
      ],
      "stateMutability": "view",
      "type": "function"
    },
    {
      "inputs": [],
      "name": "renounceOwnership",
      "outputs": [],
      "stateMutability": "nonpayable",
      "type": "function"
    },
    {
      "inputs": [
        {
          "internalType": "address",
          "name": "from",
          "type": "address"
        },
        {
          "internalType": "address",
          "name": "to",
          "type": "address"
        },
        {
          "internalType": "uint256",
          "name": "tokenId",
          "type": "uint256"
        }
      ],
      "name": "safeTransferFrom",
      "outputs": [],
      "stateMutability": "nonpayable",
      "type": "function"
    },
    {
      "inputs": [
        {
          "internalType": "address",
          "name": "from",
          "type": "address"
        },
        {
          "internalType": "address",
          "name": "to",
          "type": "address"
        },
        {
          "internalType": "uint256",
          "name": "tokenId",
          "type": "uint256"
        },
        {
          "internalType": "bytes",
          "name": "data",
          "type": "bytes"
        }
      ],
      "name": "safeTransferFrom",
      "outputs": [],
      "stateMutability": "nonpayable",
      "type": "function"
    },
    {
      "inputs": [
        {
          "internalType": "address",
          "name": "operator",
          "type": "address"
        },
        {
          "internalType": "bool",
          "name": "approved",
          "type": "bool"
        }
      ],
      "name": "setApprovalForAll",
      "outputs": [],
      "stateMutability": "nonpayable",
      "type": "function"
    },
    {
      "inputs": [
        {
          "internalType": "bytes4",
          "name": "interfaceId",
          "type": "bytes4"
        }
      ],
      "name": "supportsInterface",
      "outputs": [
        {
          "internalType": "bool",
          "name": "",
          "type": "bool"
        }
      ],
      "stateMutability": "view",
      "type": "function"
    },
    {
      "inputs": [],
      "name": "symbol",
      "outputs": [
        {
          "internalType": "string",
          "name": "",
          "type": "string"
        }
      ],
      "stateMutability": "view",
      "type": "function"
    },
    {
      "inputs": [
        {
          "internalType": "string",
          "name": "",
          "type": "string"
        }
      ],
      "name": "takenHandles",
      "outputs": [
        {
          "internalType": "bool",
          "name": "",
          "type": "bool"
        }
      ],
      "stateMutability": "view",
      "type": "function"
    },
    {
      "inputs": [
        {
          "internalType": "uint256",
          "name": "tokenId",
          "type": "uint256"
        }
      ],
      "name": "tokenURI",
      "outputs": [
        {
          "internalType": "string",
          "name": "",
          "type": "string"
        }
      ],
      "stateMutability": "view",
      "type": "function"
    },
    {
      "inputs": [
        {
          "internalType": "address",
          "name": "from",
          "type": "address"
        },
        {
          "internalType": "address",
          "name": "to",
          "type": "address"
        },
        {
          "internalType": "uint256",
          "name": "tokenId",
          "type": "uint256"
        }
      ],
      "name": "transferFrom",
      "outputs": [],
      "stateMutability": "nonpayable",
      "type": "function"
    },
    {
      "inputs": [
        {
          "internalType": "address",
          "name": "newOwner",
          "type": "address"
        }
      ],
      "name": "transferOwnership",
      "outputs": [],
      "stateMutability": "nonpayable",
      "type": "function"
    }
  ],
  "bytecode": "0x60806040523480156200001157600080fd5b506040516200275d3803806200275d833981016040819052620000349162000150565b60405180604001604052806011815260200170283937b7b31027b3102237b730ba34b7b760791b81525060405180604001604052806003815260200162506f4760e81b81525081600090816200008b919062000227565b5060016200009a828262000227565b505050620000b7620000b1620000f160201b60201c565b620000f5565b600b80546001600160a01b0319166001600160a01b038316179055620000ea600a62000147602090811b62000aed17901c565b50620002f3565b3390565b600680546001600160a01b038381166001600160a01b0319831681179093556040519116919082907f8be0079c531659141344cd1fd0a4f28419497f9722a3daafe3b4186f6b6457e090600090a35050565b80546001019055565b6000602082840312156200016357600080fd5b81516001600160a01b03811681146200017b57600080fd5b9392505050565b634e487b7160e01b600052604160045260246000fd5b600181811c90821680620001ad57607f821691505b602082108103620001ce57634e487b7160e01b600052602260045260246000fd5b50919050565b601f8211156200022257600081815260208120601f850160051c81016020861015620001fd5750805b601f850160051c820191505b818110156200021e5782815560010162000209565b5050505b505050565b81516001600160401b0381111562000243576200024362000182565b6200025b8162000254845462000198565b84620001d4565b602080601f8311600181146200029357600084156200027a5750858301515b600019600386901b1c1916600185901b1785556200021e565b600085815260208120601f198616915b82811015620002c457888601518255948401946001909101908401620002a3565b5085821015620002e35787850151600019600388901b60f8161c191681555b5050505050600190811b01905550565b61245a80620003036000396000f3fe6080604052600436106101355760003560e01c8063715018a6116100ab578063b88d4fde1161006f578063b88d4fde1461035c578063c87b56dd1461037c578063dc33e6811461039c578063e985e9c5146103bc578063f2fde38b146103dc578063f8626af8146103fc57600080fd5b8063715018a6146102d45780638da5cb5b146102e957806395d89b4114610307578063a22cb4651461031c578063b01e194c1461033c57600080fd5b80632106beec116100fd5780632106beec1461022657806323b872dd1461026157806342842e0e14610261578063500efff3146102815780636352211e1461029457806370a08231146102b457600080fd5b806301ffc9a71461013a57806306fdde031461016f578063081812fc14610191578063095ea7b3146101c95780631847c06b146101eb575b600080fd5b34801561014657600080fd5b5061015a610155366004611756565b61042e565b60405190151581526020015b60405180910390f35b34801561017b57600080fd5b50610184610480565b60405161016691906117ca565b34801561019d57600080fd5b506101b16101ac3660046117dd565b610512565b6040516001600160a01b039091168152602001610166565b3480156101d557600080fd5b506101e96101e4366004611812565b610539565b005b3480156101f757600080fd5b5061021861020636600461183c565b60086020526000908152604090205481565b604051908152602001610166565b34801561023257600080fd5b5061015a6102413660046118e3565b805160208183018101805160098252928201919093012091525460ff1681565b34801561026d57600080fd5b506101e961027c36600461192c565b505050565b61021861028f3660046119b1565b61064e565b3480156102a057600080fd5b506101b16102af3660046117dd565b610755565b3480156102c057600080fd5b506102186102cf36600461183c565b6107b5565b3480156102e057600080fd5b506101e961083b565b3480156102f557600080fd5b506006546001600160a01b03166101b1565b34801561031357600080fd5b5061018461084f565b34801561032857600080fd5b506101e9610337366004611a4e565b61085e565b34801561034857600080fd5b50600b546101b1906001600160a01b031681565b34801561036857600080fd5b506101e9610377366004611a8a565b61086d565b34801561038857600080fd5b506101846103973660046117dd565b6108eb565b3480156103a857600080fd5b506102186103b736600461183c565b6108f6565b3480156103c857600080fd5b5061015a6103d7366004611b06565b610901565b3480156103e857600080fd5b506101e96103f736600461183c565b61092f565b34801561040857600080fd5b5061041c6104173660046117dd565b6109a8565b60405161016696959493929190611b39565b60006001600160e01b031982166380ac58cd60e01b148061045f57506001600160e01b03198216635b5e139f60e01b145b8061047a57506301ffc9a760e01b6001600160e01b03198316145b92915050565b60606000805461048f90611b83565b80601f01602080910402602001604051908101604052809291908181526020018280546104bb90611b83565b80156105085780601f106104dd57610100808354040283529160200191610508565b820191906000526020600020905b8154815290600101906020018083116104eb57829003601f168201915b5050505050905090565b600061051d82610af6565b506000908152600460205260409020546001600160a01b031690565b600061054482610755565b9050806001600160a01b0316836001600160a01b0316036105b65760405162461bcd60e51b815260206004820152602160248201527f4552433732313a20617070726f76616c20746f2063757272656e74206f776e656044820152603960f91b60648201526084015b60405180910390fd5b336001600160a01b03821614806105d257506105d28133610901565b6106445760405162461bcd60e51b815260206004820152603d60248201527f4552433732313a20617070726f76652063616c6c6572206973206e6f7420746f60448201527f6b656e206f776e6572206f7220617070726f76656420666f7220616c6c00000060648201526084016105ad565b61027c8383610b55565b60008885858a60098383604051610666929190611bbd565b9081526040519081900360200190205460ff16156106bd5760405162461bcd60e51b81526020600482015260146024820152732430b73236329030b63932b0b23c903a30b5b2b760611b60448201526064016105ad565b600b5460405162f577a560e81b8152600481018390526001600160a01b039091169063f577a5009060240160006040518083038186803b15801561070057600080fd5b505afa158015610714573d6000803e3d6000fd5b505050506107228383610bc3565b6107348d61072f600a5490565b610de5565b6107448d8d8d8d8d8d8d8d610f70565b9d9c50505050505050505050505050565b6000818152600260205260408120546001600160a01b03168061047a5760405162461bcd60e51b8152602060048201526018602482015277115490cdcc8c4e881a5b9d985b1a59081d1bdad95b88125160421b60448201526064016105ad565b60006001600160a01b03821661081f5760405162461bcd60e51b815260206004820152602960248201527f4552433732313a2061646472657373207a65726f206973206e6f7420612076616044820152683634b21037bbb732b960b91b60648201526084016105ad565b506001600160a01b031660009081526003602052604090205490565b610843611042565b61084d600061109c565b565b60606001805461048f90611b83565b6108693383836110ee565b5050565b61087733836111bc565b6108d95760405162461bcd60e51b815260206004820152602d60248201527f4552433732313a2063616c6c6572206973206e6f7420746f6b656e206f776e6560448201526c1c881bdc88185c1c1c9bdd9959609a1b60648201526084016105ad565b6108e58484848461121b565b50505050565b606061047a8261124e565b600061047a826107b5565b6001600160a01b03918216600090815260056020908152604080832093909416825291909152205460ff1690565b610937611042565b6001600160a01b03811661099c5760405162461bcd60e51b815260206004820152602660248201527f4f776e61626c653a206e6577206f776e657220697320746865207a65726f206160448201526564647265737360d01b60648201526084016105ad565b6109a58161109c565b50565b600760205260009081526040902080546001820180549192916109ca90611b83565b80601f01602080910402602001604051908101604052809291908181526020018280546109f690611b83565b8015610a435780601f10610a1857610100808354040283529160200191610a43565b820191906000526020600020905b815481529060010190602001808311610a2657829003601f168201915b505050505090806002015490806003015490806004015490806005018054610a6a90611b83565b80601f0160208091040260200160405190810160405280929190818152602001828054610a9690611b83565b8015610ae35780601f10610ab857610100808354040283529160200191610ae3565b820191906000526020600020905b815481529060010190602001808311610ac657829003601f168201915b5050505050905086565b80546001019055565b6000818152600260205260409020546001600160a01b03166109a55760405162461bcd60e51b8152602060048201526018602482015277115490cdcc8c4e881a5b9d985b1a59081d1bdad95b88125160421b60448201526064016105ad565b600081815260046020526040902080546001600160a01b0319166001600160a01b0384169081179091558190610b8a82610755565b6001600160a01b03167f8c5be1e5ebec7d5bd14f71427d1e84f3dd0314c0f7b2291e5b200ac8c7c3b92560405160405180910390a45050565b600082828080601f0160208091040260200160405190810160405280939291908181526020018383808284376000920191909152505082519293505060018210905080610c105750601f81115b15610c2e57604051633eb64ab360e01b815260040160405180910390fd5b600084846000818110610c4357610c43611bcd565b909101356001600160f81b031916915050602d60f81b811480610c735750605f60f81b6001600160f81b03198216145b15610c9157604051632f2c22a760e11b815260040160405180910390fd5b60005b82811015610ddd57600360fc1b848281518110610cb357610cb3611bcd565b01602001516001600160f81b0319161080610cf15750603d60f91b848281518110610ce057610ce0611bcd565b01602001516001600160f81b031916115b80610d4d5750603960f81b848281518110610d0e57610d0e611bcd565b01602001516001600160f81b031916118015610d4d5750606160f81b848281518110610d3c57610d3c611bcd565b01602001516001600160f81b031916105b8015610d7e5750838181518110610d6657610d66611bcd565b6020910101516001600160f81b031916602d60f81b14155b8015610daf5750838181518110610d9757610d97611bcd565b6020910101516001600160f81b031916605f60f81b14155b15610dcd57604051630bb7f19b60e21b815260040160405180910390fd5b610dd681611bf9565b9050610c94565b505050505050565b6001600160a01b038216610e3b5760405162461bcd60e51b815260206004820181905260248201527f4552433732313a206d696e7420746f20746865207a65726f206164647265737360448201526064016105ad565b6000818152600260205260409020546001600160a01b031615610ea05760405162461bcd60e51b815260206004820152601c60248201527f4552433732313a20746f6b656e20616c7265616479206d696e7465640000000060448201526064016105ad565b6000818152600260205260409020546001600160a01b031615610f055760405162461bcd60e51b815260206004820152601c60248201527f4552433732313a20746f6b656e20616c7265616479206d696e7465640000000060448201526064016105ad565b6001600160a01b038216600081815260036020908152604080832080546001019055848352600290915280822080546001600160a01b0319168417905551839291907fddf252ad1be2c89b69c2b068fc378daa952ba7f163c4a11628f55a4df523b3ef908290a45050565b600080610f7c600a5490565b9050610f8c600a80546001019055565b600081815260076020526040902081815560018101610fac878983611c58565b5060048101889055600281018a905560058101610fca858783611c58565b50600381018990556001600160a01b038b1660008181526008602052604090819020849055518b919084907f81ebbaf3986774288bdbe7fcfa56c179dd612fa76d310a7f7467833f1809edca9061102c908e908e908e908e908e908e90611d42565b60405180910390a4509998505050505050505050565b6006546001600160a01b0316331461084d5760405162461bcd60e51b815260206004820181905260248201527f4f776e61626c653a2063616c6c6572206973206e6f7420746865206f776e657260448201526064016105ad565b600680546001600160a01b038381166001600160a01b0319831681179093556040519116919082907f8be0079c531659141344cd1fd0a4f28419497f9722a3daafe3b4186f6b6457e090600090a35050565b816001600160a01b0316836001600160a01b03160361114f5760405162461bcd60e51b815260206004820152601960248201527f4552433732313a20617070726f766520746f2063616c6c65720000000000000060448201526064016105ad565b6001600160a01b03838116600081815260056020908152604080832094871680845294825291829020805460ff191686151590811790915591519182527f17307eab39ab6107e8899845ad3d59bd9653f200f220920489ca2b5937696c31910160405180910390a3505050565b6000806111c883610755565b9050806001600160a01b0316846001600160a01b031614806111ef57506111ef8185610901565b806112135750836001600160a01b031661120884610512565b6001600160a01b0316145b949350505050565b61122684848461137b565b611232848484846114df565b6108e55760405162461bcd60e51b81526004016105ad90611d75565b6000818152600760209081526040808320905160609392611273926001019101611dc7565b6040516020818303038152906040529050600060146007600086815260200190815260200160002060010180546112a990611b83565b905011156112d15760405180604001604052806002815260200161034360f41b8152506112ed565b60405180604001604052806002815260200161036360f41b8152505b9050600061131b8284604051602001611307929190611e64565b6040516020818303038152906040526115e0565b60405160200161132b91906121dc565b60405160208183030381529060405290506113528382604051602001611307929190612221565b60405160200161136291906122b4565b6040516020818303038152906040529350505050919050565b826001600160a01b031661138e82610755565b6001600160a01b0316146113b45760405162461bcd60e51b81526004016105ad906122f9565b6001600160a01b0382166114165760405162461bcd60e51b8152602060048201526024808201527f4552433732313a207472616e7366657220746f20746865207a65726f206164646044820152637265737360e01b60648201526084016105ad565b826001600160a01b031661142982610755565b6001600160a01b03161461144f5760405162461bcd60e51b81526004016105ad906122f9565b600081815260046020908152604080832080546001600160a01b03199081169091556001600160a01b0387811680865260038552838620805460001901905590871680865283862080546001019055868652600290945282852080549092168417909155905184937fddf252ad1be2c89b69c2b068fc378daa952ba7f163c4a11628f55a4df523b3ef91a4505050565b60006001600160a01b0384163b156115d557604051630a85bd0160e11b81526001600160a01b0385169063150b7a029061152390339089908890889060040161233e565b6020604051808303816000875af192505050801561155e575060408051601f3d908101601f1916820190925261155b9181019061237b565b60015b6115bb573d80801561158c576040519150601f19603f3d011682016040523d82523d6000602084013e611591565b606091505b5080516000036115b35760405162461bcd60e51b81526004016105ad90611d75565b805181602001fd5b6001600160e01b031916630a85bd0160e11b149050611213565b506001949350505050565b606081516000036115ff57505060408051602081019091526000815290565b60006040518060600160405280604081526020016123e5604091399050600060038451600261162e9190612398565b61163891906123ab565b6116439060046123cd565b67ffffffffffffffff81111561165b5761165b611857565b6040519080825280601f01601f191660200182016040528015611685576020820181803683370190505b50905060018201602082018586518701602081018051600082525b828410156116fb576003840193508351603f8160121c168701518653600186019550603f81600c1c168701518653600186019550603f8160061c168701518653600186019550603f81168701518653506001850194506116a0565b905250508551600390066001811461171a576002811461172d57611735565b603d6001830353603d6002830353611735565b603d60018303535b509195945050505050565b6001600160e01b0319811681146109a557600080fd5b60006020828403121561176857600080fd5b813561177381611740565b9392505050565b60005b8381101561179557818101518382015260200161177d565b50506000910152565b600081518084526117b681602086016020860161177a565b601f01601f19169290920160200192915050565b602081526000611773602083018461179e565b6000602082840312156117ef57600080fd5b5035919050565b80356001600160a01b038116811461180d57600080fd5b919050565b6000806040838503121561182557600080fd5b61182e836117f6565b946020939093013593505050565b60006020828403121561184e57600080fd5b611773826117f6565b634e487b7160e01b600052604160045260246000fd5b600067ffffffffffffffff8084111561188857611888611857565b604051601f8501601f19908116603f011681019082821181831017156118b0576118b0611857565b816040528093508581528686860111156118c957600080fd5b858560208301376000602087830101525050509392505050565b6000602082840312156118f557600080fd5b813567ffffffffffffffff81111561190c57600080fd5b8201601f8101841361191d57600080fd5b6112138482356020840161186d565b60008060006060848603121561194157600080fd5b61194a846117f6565b9250611958602085016117f6565b9150604084013590509250925092565b60008083601f84011261197a57600080fd5b50813567ffffffffffffffff81111561199257600080fd5b6020830191508360208285010111156119aa57600080fd5b9250929050565b60008060008060008060008060c0898b0312156119cd57600080fd5b6119d6896117f6565b9750602089013596506040890135955060608901359450608089013567ffffffffffffffff80821115611a0857600080fd5b611a148c838d01611968565b909650945060a08b0135915080821115611a2d57600080fd5b50611a3a8b828c01611968565b999c989b5096995094979396929594505050565b60008060408385031215611a6157600080fd5b611a6a836117f6565b915060208301358015158114611a7f57600080fd5b809150509250929050565b60008060008060808587031215611aa057600080fd5b611aa9856117f6565b9350611ab7602086016117f6565b925060408501359150606085013567ffffffffffffffff811115611ada57600080fd5b8501601f81018713611aeb57600080fd5b611afa8782356020840161186d565b91505092959194509250565b60008060408385031215611b1957600080fd5b611b22836117f6565b9150611b30602084016117f6565b90509250929050565b86815260c060208201526000611b5260c083018861179e565b86604084015285606084015284608084015282810360a0840152611b76818561179e565b9998505050505050505050565b600181811c90821680611b9757607f821691505b602082108103611bb757634e487b7160e01b600052602260045260246000fd5b50919050565b8183823760009101908152919050565b634e487b7160e01b600052603260045260246000fd5b634e487b7160e01b600052601160045260246000fd5b600060018201611c0b57611c0b611be3565b5060010190565b601f82111561027c57600081815260208120601f850160051c81016020861015611c395750805b601f850160051c820191505b81811015610ddd57828155600101611c45565b67ffffffffffffffff831115611c7057611c70611857565b611c8483611c7e8354611b83565b83611c12565b6000601f841160018114611cb85760008515611ca05750838201355b600019600387901b1c1916600186901b178355611d12565b600083815260209020601f19861690835b82811015611ce95786850135825560209485019460019092019101611cc9565b5086821015611d065760001960f88860031b161c19848701351681555b505060018560011b0183555b5050505050565b81835281816020850137506000828201602090810191909152601f909101601f19169091010190565b868152856020820152608060408201526000611d62608083018688611d19565b8281036060840152611b76818587611d19565b60208082526032908201527f4552433732313a207472616e7366657220746f206e6f6e20455243373231526560408201527131b2b4bb32b91034b6b83632b6b2b73a32b960711b606082015260800190565b6000808354611dd581611b83565b60018281168015611ded5760018114611e0257611e31565b60ff1984168752821515830287019450611e31565b8760005260208060002060005b85811015611e285781548a820152908401908201611e0f565b50505082870194505b5050620b9d1b60ea1b835250506003019392505050565b60008151611e5a81856020860161177a565b9290920192915050565b7f3c73766720786d6c6e733d22687474703a2f2f7777772e77332e6f72672f323081527f30302f737667222077696474683d2237323022206865696768743d223732302260208201527f3e3c726563742077696474683d223130302522206865696768743d223130302560408201527f222f3e3c73766720786d6c6e733d22687474703a2f2f7777772e77332e6f726760608201527f2f323030302f737667222077696474683d2231353022206865696768743d223160808201527f3530222076657273696f6e3d22312e32222076696577426f783d222d3230302060a08201527f2d353020313030302031303030223e3c706174682066696c6c3d22234646464660c08201527f46462220643d224d3236342e35203139302e3563302d31332e382031312e322d60e08201527f32352032352d3235483536386331332e3820302032352031312e3220323520326101008201527f357634393063302031332e382d31312e322032352d3235203235483238392e356101208201527f632d31332e3820302d32352d31312e322d32352d32357a222f3e3c70617468206101408201527f66696c6c3d22234646464646462220643d224d3236352036323463302d31332e6101608201527f382031312e322d32352032352d3235683534336331332e3820302032352031316101808201527f2e322032352032357635362e3563302031332e382d31312e322032352d3235206101a08201527f323548323930632d31332e3820302d32352d31312e322d32352d32357a222f3e6101c08201527f3c706174682066696c6c3d22234646464646462220643d224d30203139302e356101e08201527f63302d31332e382031312e322d32352032352d3235683534336331332e3820306102008201527f2032352031312e322032352032355632343763302031332e382d31312e3220326102208201527f352d3235203235483235632d31332e3820302d32352d31312e322d32352d32356102408201527f7a222f3e3c2f7376673e3c7465787420783d2233302220793d223637302220736102608201526b03a3cb6329e913337b73a1d160a51b61028082015260006112136121c36121bd61219461028c860188611e48565b7f70782073616e732d73657269663b66696c6c3a23666666223e00000000000000815260190190565b85611e48565b6c1e17ba32bc3a1f1e17b9bb339f60991b8152600d0190565b7f646174613a696d6167652f7376672b786d6c3b6261736536342c00000000000081526000825161221481601a85016020870161177a565b91909101601a0192915050565b683d913730b6b2911d1160b91b8152825160009061224681600985016020880161177a565b6b1116101134b6b0b3b2911d1160a11b600991840191820152835161227281601584016020880161177a565b7f222c20226465736372697074696f6e223a202254616c656e744c617965722049601592909101918201526244227d60e81b6035820152603801949350505050565b7f646174613a6170706c69636174696f6e2f6a736f6e3b6261736536342c0000008152600082516122ec81601d85016020870161177a565b91909101601d0192915050565b60208082526025908201527f4552433732313a207472616e736665722066726f6d20696e636f72726563742060408201526437bbb732b960d91b606082015260800190565b6001600160a01b03858116825284166020820152604081018390526080606082018190526000906123719083018461179e565b9695505050505050565b60006020828403121561238d57600080fd5b815161177381611740565b8082018082111561047a5761047a611be3565b6000826123c857634e487b7160e01b600052601260045260246000fd5b500490565b808202811582820484141761047a5761047a611be356fe4142434445464748494a4b4c4d4e4f505152535455565758595a6162636465666768696a6b6c6d6e6f707172737475767778797a303132333435363738392b2fa2646970667358221220f831ce2ed01066e516d830df37d32c4c6f89a4adb78009fef65467c2ace8d79864736f6c63430008110033",
  "linkReferences": {},
  "deployedLinkReferences": {}
}